:100000002F923F924F925F926F927F928F929F9228
:10001000AF92BF92CF92DF92EF92FF920F931F9316
:10002000CF93DF93CDB7DEB7A8970FB6F894DEBFB6
:100030000FBECDBF4CD500E010E018870F831E83A4
:100040000D831C830B8385E090E09A838983E4E031
:10005000F0E0202F312F402F512F602F712F802F54
:10006000912FAE2EBF2EC02ED12EE02EF12E602E5F
:10007000712E0CD000E81AE126E030E09EA38DA39B
:10008000462D572D662D772D1BD078A26F8E7E8E34
:100090006D8E7C8E6B8E8CE390E09A8F898F788E3C
:1000A0006F8A7E8A6D8A7C8A6B8A8EE090E09A8B5A
:1000B000898B788A6F867E866D867C866B868CE0DF
:1000C00090E09A878987882E992E78866F827E8223
:1000D0006D827C826B8280E490E09A83898321E048
:1000E00030E0E0E8F0E0422E532E462D572D662DED
:1000F000772D862D972DAE2EBF2EC62CD72CE62C15
:10010000F72C062D172DA2D0082F192F28E330E049
:10011000462D572D662D772D862D972DC1D4282E4F
:10012000392EE22DF32D1CA30BA315A304A30E2F30
:100130001F2F8EE590E4262D372D462D572D662D49
:10014000772DE9DDE02FF12F938382837183608324
:10015000EE2EFF2E80E197E402E110E0262D372DF0
:10016000462D572D662D772D05D8EE2DFF2D918725
:100170008087E280F380C080D180AE2EBF2E8AEBD4
:1001800096E4082D192D262D372D462D572D662D39
:10019000772DF0D7082F192F6C2D7D2D8E2D9F2DAB
:1001A000A5DD6EDC682F792F802F912F2BD9E82EBB
:1001B000F92E87EC96E4042D152D262D372D462D8E
:1001C000572D662D772DD6D7682F792F8E2D9F2D01
:1001D00019D9EA2DFB2D73A262A271A260A2778EBB
:1001E000668E24E030E0358F248F75866486938791
:1001F000828777866686718A608A738A628A758A40
:10020000648A778A668A718E608E862C972C738EAC
:10021000628E822D932D6ED184E190E0682E792E2E
:10022000422C532C822D932D74D2262D372D482D00
:10023000592D642F752F842F952F62D8AFD86BDD81
:10024000E42DF52D06811781E480F580C280D380EE
:10025000A080B1804BDDFFD1882322F3E22DF32D66
:10026000F8A7EFA364A075A0862D972DA82CB92C14
:100270000A2D1B2D2A2D3B2D4A2D5B2D6A2D7B2D02
:1002800057D086EA96E40BE010E02A2D3B2D4A2D4C
:100290005B2D6A2D7B2D6ED7E82EF92EFAA2E9A2EE
:1002A00089EC96E408E010E02A2D3B2D4A2D5B2DC9
:1002B0006A2D7B2D5FD7482E592EBA8AA98AB88A13
:1002C000AF86BE86AD8681E090E09C878B87BA863C
:1002D000A986B886AF82BE82AD828FEF9FEF9C83E6
:1002E0008B83FA82E98204E010E0E8E1F0E0862DF9
:1002F000972D2A2D3B2D4A2D5B2D6A2D7B2D8E2E81
:100300009F2ECA2CDB2CEA2CFB2C9ED2BA8AA98AFF
:10031000B88AAF86BE86AD8681E090E09C878B87E9
:10032000BA86A986B886AF82BE82AD828FEF9FEF74
:100330009C838B835A824982E8E2F0E0862D972DD8
:100340002A2D3B2D4A2D5B2D6A2D7B2D8E2E9F2E27
:100350007BD2862D972DB0D189A19AA177D7842DF4
:10036000952D74D7EFA1F8A5808591856FD7EFA162
:10037000F8A5828593856AD7EFA1F8A58085918538
:1003800065D7EFA1F8A58285938560D7822D932D3F
:100390009DD38DA19EA193DE8BA19CA18ADFB3D3B7
:1003A000A8960FB6F894DEBF0FBECDBFDF91CF91F8
:1003B0001F910F91FF90EF90DF90CF90BF90AF9083
:1003C0009F908F907F906F905F904F903F902F9075
:1003D00008958F929F92AF92BF92CF92DF92EF9249
:1003E000FF920F931F93E82FF92F75A364A30E2F8D
:1003F0001F2F20E030E08EE590E4422F532F622F34
:10040000732FC22ED32E87DCE02FF12F93838283AC
:1004100071836083EE2EFF2E80E197E402E110E00D
:100420002C2D3D2D422F532F622F732F822E932E72
:10043000A1D6EE2DFF2D91878087E280F380C080CA
:10044000D180AE2EBF2E8AEB96E40CE010E0282D72
:10045000392D422F532F622F732F8CD6082F192F2F
:100460006C2D7D2D8E2D9F2D41DC0ADB682F792F81
:10047000802F912FC7D7E82EF92E87EC96E401E064
:1004800010E0282D392D422F532F622F732FC22EAB
:10049000D32E70D6682F792F8E2D9F2DB3D7EA2DAE
:1004A000FB2D4C2D5D2D53A342A351A340A3578F89
:1004B000468F24E030E0358F248F5587448793871B
:1004C000828757874687518B408B538B428B558B46
:1004D000448B578B468B518F408F538F428F1F9188
:1004E0000F91FF90EF90DF90CF90BF90AF909F90D3
:1004F0008F9008952F923F924F925F926F927F92CA
:100500008F929F92AF92BF92CF92DF92EF92FF9223
:100510000F931F93082F192FDAD2E02FF12F64A029
:1005200075A02E2E3F2E862D972DC4DE00E010E004
:10053000862D972D202F312F402F512F602F712F77
:10054000F7DEE22DF32D80859185EDB7FEB7E25100
:10055000F0400FB6F894FEBF0FBEEDBF402E512EF7
:10056000528A418A508A47865686458621E030E085
:100570003487238752864186508647825682458239
:100580002FEF3FEF348323839283818304E010E0D5
:10059000E0E1F0E0862D972D242D352D442D552DAD
:1005A000642D752D8E2E9F2EA42CB52CC42CD52CED
:1005B000E42CF52C49D1EDB7FEB772960FB6F8943E
:1005C000FEBF0FBEEDBFE22DF32D82859385EDB703
:1005D000FEB7E251F0400FB6F894FEBF0FBEEDBF7C
:1005E000528A418A508A47865686458621E030E005
:1005F00034872387528641865086478256824582B9
:100600002FEF3FEF3483238392838183E0E2F0E096
:10061000862D972D04E010E0242D352D442D552DE9
:10062000642D752D8E2E9F2E242C352C0DD1EDB7DB
:10063000FEB772960FB6F894FEBF0FBEEDBF82EB09
:1006400096E407E010E0222D332D422D532D622D2C
:10065000732D90D5482E592EEDB7FEB7E251F040DC
:100660000FB6F894FEBF0FBEEDBF328A218A308AE2
:1006700027863686258681E090E0948783873286B8
:10068000218630862782368225828FEF9FEF9483E2
:10069000838352824182E0E3F0E0862D972D04E0CF
:1006A00010E0222D332D422D532D622D732D8E2ED1
:1006B0009F2EA22CB32CC22CD32CE22CF32CC4D012
:1006C000EDB7FEB772960FB6F894FEBF0FBEEDBF42
:1006D000862D972DF1DF842D952DB8D524EC39E0AA
:1006E000422D532D622D732D822D932D09D60BD2C1
:1006F0001F910F91FF90EF90DF90CF90BF90AF9040
:100700009F908F907F906F905F904F903F902F9031
:1007100008952F923F924F925F926F927F928F92A5
:100720009F92AF92BF92CF92DF92EF92FF920F9380
:100730001F93CF93DF93CDB7DEB76C970FB6F894C6
:10074000DEBF0FBECDBF082F192FC1D11C8F0B8F5D
:10075000E02FF12F44A055A02E2E3F2E00E010E0F8
:10076000842D952D202F312F402F512F602F712F49
:10077000DFDD14D685D9602E712E7A8A698A788A4F
:100780006F867E866D8621E030E03C872B877A86F7
:10079000698678866F827E826D822FEF3FEF3C8381
:1007A0002B839A838983E9E1F0E0842D952D262D12
:1007B000372D462D572D662D772D8E2E9F2EA62C4C
:1007C000B72CC62CD72CE62CF72C3ED0E22DF32DDF
:1007D000FA8FE98FE288F388C088D188A684B7842D
:1007E0008484958484EE96E40FE010E0262D372D66
:1007F000462D572D662D772DBDD4082F192F282D66
:10080000392D4A2D5B2D6C2D7D2D8E2D9F2D98D64B
:10081000682F792F802F912FF5D5E82EF92E82EDB4
:1008200096E401E010E0262D372D462D572D662D3C
:10083000772DA0D4682F792F8E2D9F2DE3D57A8A1E
:10084000698A788A6F867E866D861C870B877A8692
:10085000698678866F827E826D822FEF3FEF222E2F
:10086000332E3C822B829A838983842D952D062DED
:10087000172D262D372D462D572D662D772D862C9D
:10088000972CA62CB72CC62CD72CE62CF72CDCDF0B
:10089000788E6F8A7E8A6D8A7C8A6B8A822D932DF0
:1008A0009A8B898B788A6F867E866D867C866B862E
:1008B00086E290E09A87898778866F827E826D8251
:1008C0007C826B828FE790E09A838983E7E2F0E095
:1008D000842D952D262D372D462D572D662D772DC0
:1008E0008E2E9F2E262C372C10DEE98DFA8D628DF0
:1008F000738D408D518D26893789048915896E2E17
:100900007F2E388E2F8A3E8A2D8A3C8A2B8A8FEF43
:100910009FEF9A8B898B388A2F863E862D863C8660
:100920002B868EE090E09A87898738862F823E82D8
:100930002D823C822B829A838983EEE2F0E0842D23
:10094000952D8E2E9F2EA22CB32CC22CD32CE22CB4
:10095000F32C4DDDE62DF72D24893589448D558DF9
:1009600066897789C68CD78CA08DB18D00A111A125
:10097000E28CF38C82A193A1420F531FC61ED71E97
:100980000A1F1B1F8E1D9F1D118F008F938F828F3B
:10099000558B448BD78AC68A21E043375105C20460
:1009A000D30402051305820593050CF4212D217053
:1009B00020300B8D1C8D29F08CEF9FEF2FEF3FEF38
:1009C0000BC081E099230AF4812D8170803071F48D
:1009D00020E030E084E090E0E02FF12F958F848FCD
:1009E000378F268F31A320A333A322A3842D952DE7
:1009F00063DEE02FF12F0485158586859785208994
:100A00003189428953890F5F1F4F8F4F9F4F2F4F5F
:100A10003F4F4F4F5F4F318B208BC22ED32E538BC6
:100A2000428BA42EB52E1587048797878687E82EDC
:100A3000F92E69D0202F312F4E2D5F2D6C2D7D2D5D
:100A40008A2D9B2D6C960FB6F894DEBF0FBECDBFDE
:100A5000DF91CF911F910F91FF90EF90DF90CF909A
:100A6000BF90AF909F908F907F906F905F904F90CE
:100A70003F902F90089500001092C50087E6809364
:100A8000C40088E08093C10086E08093C20008958E
:100A90009091C00090729030D9F38093C600089571
:100AA000E22FF32F3196EE7F8091000290910102A8
:100AB000E80FF91F21E0E130F20738F4F09301026A
:100AC000E093000280509F4F089555D00895809183
:100AD00012029091130288309105A0F4282F392F2B
:100AE000220F331F2E5F3D4F4091000250910102B3
:100AF000E22FF32F5183408301969093130280934A
:100B00001202089545D0809112029091130281152E
:100B1000910591F001979093130280931202880F30
:100B2000991F8E5F9D4FE82FF92F808191819093BF
:100B3000010280930002089538D00115110591F04B
:100B4000E0E0F0E0A82FB92FAE0FBF1F2C9130913D
:100B5000C00030723030D9F32093C6003196E017D0
:100B6000F10780F38091C00080728030D9F38AE071
:100B70008093C600FFCF0F931F9384ED96E40FE0A0
:100B800010E020E030E0422F532F622F732FD5DF8B
:100B90000F931F9380E597E40AE110E020E030E036
:100BA000422F532F622F732FC8DF0F931F9380E3C1
:100BB00097E40BE110E020E030E0422F532F622F4A
:100BC000732FBBDF8091C00080728030D9F38AE040
:100BD0008093C60008952F924F926F927F928F92CA
:100BE0009F92AF92BF92CF92DF92EF92FF920F93BC
:100BF0001F93CF93DF93CDB7DEB722970FB6F8944C
:100C0000DEBF0FBECDBF832F88235AF48091C00072
:100C100080728030D9F38DE28093C60031952195A2
:100C2000310917E220313107812D622E732ED0F069
:100C3000662D772D60517742729562956F706727A8
:100C40007F70672727E433E040E050E0842F952F42
:100C5000CCD1262D372D9695879596958795969587
:100C6000879583959A83898320313107622F732F6B
:100C700010F46FE077E2729562956F7067277F706E
:100C8000672727E433E040E050E0842F952FC42EFF
:100C9000D52EABD196958795969587959695879500
:100CA00060E177E259D1E82EF92E062D172D0E19A5
:100CB0001F0933E0083E1307212CD0F0602F712F5D
:100CC000685E734076956795769567957695679596
:100CD00025EC30E240E050E0842F952F86D133E0C0
:100CE00082958F70929589279F709827292E23943B
:100CF00087EE93E0801B910B21E0883E930708F478
:100D0000212D20304C2D5D2D642F752F11F4682F6F
:100D1000792F062D172D600F711F6E197F0976959B
:100D20006795769567957695679525EC30E2842FE3
:100D3000952F5BD182958F70929589279F70892717
:100D400068EE73E009D1602F712FC82ED92EAC2C1C
:100D5000BD2CAE0CBF1C0A191B0904361105812DD0
:100D6000A0F0602F712F6456704076956795769548
:100D700067952BE734E140E050E0842F952F35D183
:100D8000662D772D969587958395482E83E690E07E
:100D9000801B910B21E08436910508F4212D40E061
:100DA00050E02030842E952E11F4882E992E062F97
:100DB000172F080D191D0A191B09602F712F769521
:100DC0006795769567952BE734E1842F952F0DD1A4
:100DD0009695879564E670E0BFD0A82EB92E0A19C3
:100DE0001B09081919090A301105812DD8F02A2D7F
:100DF0003B2D2C0D3D1D2E0D3F1D862D972D821B4D
:100E0000930B0A972DEC3CEC40E050E0682F792FD3
:100E1000842F952FEAD096958795969587959695E8
:100E20008795839529813A81203051F09091C000B7
:100E300090729030D9F3205D2093C600222D04C01B
:100E4000222D203009F469C09091C000907290303A
:100E5000D9F3205D2093C600242D9091C00090729C
:100E60009030D9F3205D2093C6009091C00090721D
:100E70009030D9F3805D8093C6008091C00080726D
:100E80008030D9F389E090E0801B910B21E08A301B
:100E9000910508F4212D40E050E02030842E952E5D
:100EA00011F4882E992E860C971CAC0CBD1CAE0C30
:100EB000BF1C082D192D0A191B092DEC3CEC602FC5
:100EC000712F842F952F91D096958795969587951C
:100ED000969587956AE070E03FD0081B190B060DC8
:100EE000171D0819190900630093C60022960FB652
:100EF000F894DEBF0FBECDBFDF91CF911F910F9150
:100F0000FF90EF90DF90CF90BF90AF909F908F9029
:100F10007F906F904F902F900895242D203009F0EE
:100F20009CCF803009F0A1CFA8CF86179707212D3D
:100F300038F0212D861B970B239586179707D0F73E
:100F4000822F0895282F392F861B970B26173707D6
:100F5000C8F7822F932F0895611520E030E07105C6
:100F6000B1F0462F572FE62FF72FE170F070F19573
:100F7000E195F109E823F9232E0F3F1F5695479578
:100F8000880F991F62307105642F752F60F7822FCB
:100F9000932F08950F931F9341155105A1F0E0E0A1
:100FA000F0E0282F392F2E0F3F1F022F132FA62FCF
:100FB000B72FAE0FBF1F2C91A02FB12F2C933196BE
:100FC000E417F50770F31F910F910895411551052E
:100FD00059F0E0E0F0E0A82FB92FAE0FBF1F6C93DF
:100FE0003196E417F507B8F30895AF92BF92CF9208
:100FF000DF92EF92FF921F93E22FF32FA0E0B0E079
:1010000021E0E115F105AA2EBB2E4A075B0709F086
:10101000212D2170203009F02CC0CA2CDB2CEC2CA7
:10102000FD2C1CC011702E2F3F2F21703070319578
:1010300021953109A22FB32FA623B72328233923C3
:10104000EA0EFB1EC21ED31E56954795F795E795EF
:10105000660F771F881F991F103079F011E0E2307A
:10106000F1052A2D3B2D4207530708F0DBCF112D48
:10107000D9CFCA2CDB2CEC2CFD2C6E2D7F2D8C2D8A
:101080009D2D1F91FF90EF90DF90CF90BF90AF907C
:1010900008958170803009F426C08091C00080726C
:1010A0008030D9F384E78093C6008091C0008072BD
:1010B0008030D9F382E78093C6008091C0008072AF
:1010C0008030D9F385E78093C6008091C00080729C
:1010D0008030D9F385E68093C6008091C00080728D
:1010E0008030D9F32DC08091C00080728030D9F358
:1010F00086E68093C6008091C00080728030D9F36C
:1011000081E68093C6008091C00080728030D9F360
:101110008CE68093C6008091C00080728030D9F345
:1011200083E78093C6008091C00080728030D9F33D
:1011300085E68093C6008091C00080728030D9F32C
:101140008AE08093C60008950115110591F0E0E052
:10115000F0E0A82FB92FAE0FBF1F2C913091C00027
:1011600030723030D9F32093C6003196E017F10782
:1011700080F30895EF92FF92282F392F609100029B
:1011800070910102862F972F089641E081309407D5
:1011900008F04FC0A02FB12FAE7FA80FB91F129635
:1011A000A130B40708F045C0B0930102A09300023B
:1011B00080509F4F01151105A1F0A0E0B0E0482F2D
:1011C000592F4A0F5B1FE42EF52EE22FF32FEA0F63
:1011D000FB1F4081EE2DFF2D40831196A017B10714
:1011E00070F3A82FB92FA00FB11F1C92E62FF72F75
:1011F000EA5FFE4F91838083862F972F8C5F9E4FEF
:10120000E82FF92F11830083862F972F8E5F9E4F33
:10121000E82FF92F1183008360507F4F81E090E029
:10122000E62FF72F91838083862F972FFF90EF90E3
:101230000895A1DC08958115910539F0E82FF92F63
:101240008081918101969183808308958115910514
:1012500039F0E82FF92F8081918101979183808364
:101260000895E82FF92F2281338140E050E0642F68
:10127000752F842F952F0895E82FF92F8681978158
:101280000895E82FF92F2281338121153105B1F01E
:10129000E82FF92F86819781E0E0F0E0A82FB92FA1
:1012A000AE0FBF1F4C915091C00050725030D9F317
:1012B0004093C6003196E217F30780F38091C00097
:1012C00080728030D9F38AE08093C600089510922E
:1012D000800081E080938100089510928500109233
:1012E00084008EE39091840020918500322F222784
:1012F000492F5527422B532B4038580798F3089510
:101300000F931F9360E070E081E0211531054607DF
:10131000570709F0812D8170803009F03CC080E0D2
:1013200090E06EE3E82FF92F04C07170703009F47B
:1013300032C0109285001092840070918400A091B8
:101340008500BA2FAA27072F11270A2B1B2B00383D
:10135000160798F3A0911402B0911502009116029D
:1013600010911702AF5FBF4F0F4F1F4FB093150281
:10137000A093140210931702009316028F5F9F4FE1
:10138000EF4FFF4F71E082179307E407F50708F46A
:10139000CCCF712DCACF1F910F910895AF92BF92FC
:1013A000CF92DF92EF92FF920F931F9380911602DC
:1013B00090911702609114027091150223D5E0E01C
:1013C000F0E0A0E0B0E40FE810E4AE2EBF2ECE2E89
:1013D000DF2EEA2EFB2E00D61F910F91FF90EF908B
:1013E000DF90CF90BF90AF9008952091140230917C
:1013F0001502409116025091170260E070E0862FAE
:10140000972F08958F929F92AF92BF92CF92DF92C3
:10141000EF92FF920F931F93282F392F40910002D4
:1014200050910102842F952F0896E1E081309E07AC
:1014300008F085C0E22FF32FE280F380E62FF72F2C
:1014400002811381A02FB12FAE0DBF1DCA2EDB2E3E
:10145000AE7FA80FB91F1296A130E1E0BE0708F0D9
:101460006EC0E62FF72F66817781E22FF32F26815A
:101470003781B0930102A093000280509F4FE11486
:10148000F104882E992E81F080E090E0E82DF92D6E
:10149000E80FF91FA22FB32FA80FB91FAC91A0839B
:1014A00001968E159F0590F301151105882D992D34
:1014B000B1F0E80EF91EE0E0F0E02E2D3F2D2E0FEA
:1014C0003F1FA22EB32EA62FB72FAE0FBF1F2C91FA
:1014D000AA2DBB2D2C933196E017F10770F3A82F9E
:1014E000B92FAC0DBD1D1C92E42FF52FEA5FFE4F06
:1014F00091838083842F952F8C5F9E4FE82FF92F47
:10150000D182C082842F952F8E5F9E4FE82FF92FB6
:10151000D182C08240505F4F81E090E0E42FF52FF0
:1015200091838083842F952F1F910F91FF90EF90CF
:10153000DF90CF90BF90AF909F908F9008951BDB6E
:101540002F923F924F926F927F928F929F92AF9283
:10155000BF92CF92DF92EF92FF920F931F93CF93A0
:10156000DF93CDB7DEB72C970FB6F894DEBF0FBE72
:10157000CDBFE22EF32E8E2D9F2D990F990B892F23
:101580006E2D7F2D68277927681B790B17E2603154
:101590007107812D262E372ED0F0622D732D6051CC
:1015A0007742729562956F7067277F70672727E48F
:1015B00033E040E050E0842F952F17DD622D732D2E
:1015C00096958795969587959695879583959C830F
:1015D0008B836031710710F46FE077E2729562954A
:1015E0006F7067277F70672727E433E040E050E0A3
:1015F000842F952FA42EB52EF8DC96958795969579
:1016000087959695879560E177E2A6DCC82ED92E5E
:10161000022D132D0C191D0933E0083E1307812DEF
:10162000D0F0602F712F685E734076956795769540
:1016300067957695679525EC30E240E050E0842F81
:10164000952FD3DC33E082958F70929589279F7018
:101650009827892F83959A83898387EE93E0801B4F
:10166000910B21E0883E930708F4212D20304A2D6C
:101670005B2D642F752F11F4682F792F022D132DF8
:10168000600F711F6C197D09769567957695679542
:101690007695679525EC30E2842F952FA6DC829510
:1016A0008F70929589279F70892768EE73E054DCCC
:1016B000A82EB92E6A2C7B2C6C0C7D1C06191709E0
:1016C00004361105812D90F0602F712F6456704003
:1016D00076956795769567952BE734E140E050E085
:1016E000842F952F82DC969587958395482E83E6E7
:1016F00090E0801B910B21E08436910508F4212DA8
:1017000040E050E02030642F752F11F4682F792FBE
:10171000022D132D600F711F661977097695679555
:10172000769567952BE734E1842F952F5EDC9695AF
:10173000879564E670E010DC602F712F882E992E5B
:10174000680C791C061917090A301105812DE8F07B
:10175000282D392D2A0D3B1D2C0D3D1D862F972F31
:10176000821B930B0A972DEC3CEC40E050E0682F75
:10177000792F842F952F39DC622D732D96958795BF
:1017800096958795969587958395282E89E090E084
:10179000801B910B21E08A30910508F4212D40E057
:1017A00050E02030642E752E11F4682E792E660ECE
:1017B000771E8A0C9B1C8C0C9D1C062D172D08195E
:1017C00019092DEC3CECC62ED72E602F712F842FDB
:1017D000952F0BDC96958795969587959695879589
:1017E0006AE070E0B9DB081B190B0C0D1D1DAE2D56
:1017F000BF2DAB2FA295AF70BB27A695A695FF2056
:1018000012F42DE22D8306191709A6952B813C8130
:10181000203059F0EC2FFD2F3596EA0FFB1F205D8D
:101820002083119629813A8105C029813A8120308F
:1018300009F48CC0EC2FFD2F3596EA0FFB1F205DBD
:1018400020831196242DEC2FFD2F3596EA0FFB1FD8
:10185000205D20831196222DEC2FFD2F3596EA0F67
:10186000FB1F205D208311968A2F9B2F01962C2F22
:101870003D2F2B5F3F4FE22FF32FE82EF92EE80F7D
:10188000F91F1082E22FF32FEA0FFB1F0063008382
:101890000091000210910102802F912F089621E003
:1018A0008130920708F05BC0EE2DFF2DEE7FE80F30
:1018B000F91F3296E130F20708F051C0F0930102AF
:1018C000E093000280509F4F6C2F7D2F6B5F7F4F06
:1018D0004E2D5F2DC82ED92E5DDBAE2DBF2DAC0D4C
:1018E000BD1D1C92802F912F80509F4F21E030E032
:1018F000E82FF92F31832083E02FF12FEE5FFE4F89
:10190000F182E082E02FF12FEC5FFE4FF182E08266
:101910000A5F1E4FE02FF12FD182C0822C960FB6A6
:10192000F894DEBF0FBECDBFDF91CF911F910F9115
:10193000FF90EF90DF90CF90BF90AF909F908F90EF
:101940007F906F904F903F902F900895242D2030DE
:1019500009F079CF222D203009F07ECF85CF0BD929
:101960002091000230910102A22FB32F18968170AE
:10197000803009F433C081E0A130B80708F07FC09F
:10198000E22FF32F3E96E130F80708F078C0F0938D
:101990000102E09300028A2F9B2F8E5F9E4F45E746
:1019A00055E6E82FF92F518340834A2F5B2F405093
:1019B0005F4F84E792E7E42FF52F91838083AC5F3C
:1019C000BE4F1C92822F932F80509F4F61E070E09A
:1019D000E82FF92F7183608364E03DC081E0A1307E
:1019E000B80708F04CC0E22FF32F3E96E130F8071D
:1019F00008F045C0F0930102E0930002EA2FFB2FAC
:101A0000EC5FFE4F8091A44680838A2F9B2F8E5FD0
:101A10009E4F4091A2465091A346E82FF92F518343
:101A200040834A2F5B2F40505F4F8091A04690919A
:101A3000A146E42FF52F91838083AB5FBE4F1C92AC
:101A4000822F932F80509F4F61E070E0E82FF92F95
:101A50007183608365E070E0E22FF32FEA5FFE4F51
:101A600051834083E22FF32FEC5FFE4F718360833D
:101A70002E5F3E4FE22FF32F7183608308957BD852
:101A80002F923F924F925F926F927F928F929F928E
:101A9000AF92BF92CF92DF92EF92FF920F931F937C
:101AA000CF93DF93CDB7DEB76A970FB6F894DEBF5A
:101AB0000FBECDBF9A878987262E372E442E552EEE
:101AC000622E732E9F77882E992EAAD17E876D87DE
:101AD00099D1A22EB32EC42ED52EE62EF72E082F86
:101AE000192F262D372D442D552D622D732D882D20
:101AF000992D6BD2E0E0F0E0A0E0B0E40FE810E454
:101B0000AE2EBF2ECE2EDF2EEA2EFB2E60D288D137
:101B100029853A8581E0932F99230AF4812D7C87CA
:101B20006B878170330F412C441C803011F48DE29F
:101B30008F8717E26D857E8560317107812DD0F02A
:101B40006D857E8560517742729562956F706727CB
:101B50007F70672727E433E040E050E0842F952F23
:101B600044DA6D857E8596958795969587959695A9
:101B7000879583959A8789876031710710F46FE0A4
:101B800077E2729562956F7067277F70672727E409
:101B900033E040E050E0842F952FE42EF52E25DA37
:101BA00096958795969587959695879560E177E2C6
:101BB000D3D9C82ED92E0D851E850C191D0933E0E9
:101BC000083E1307812DD0F0602F712F685E73409F
:101BD00076956795769567957695679525EC30E2CD
:101BE00040E050E0842F952F00DA33E082958F702B
:101BF000929589279F709827892F839598878F833F
:101C000087EE93E0801B910B21E0883E930708F458
:101C1000212D20304E2D5F2D642F752F11F4682F4C
:101C2000792F0D851E85600F711F6C197D097695C2
:101C30006795769567957695679525EC30E2842FC4
:101C4000952FD3D982958F70929589279F70892778
:101C500068EE73E081D9602F712FE82EF92EAE2C3B
:101C6000BF2CAC0CBD1C0A191B0904361105812DB3
:101C7000A0F0602F712F6456704076956795769529
:101C800067952BE734E140E050E0842F952FADD9E4
:101C90006D857E859695879583959E838D8383E656
:101CA00090E0801B910B21E08436910508F4212DF2
:101CB00040E050E02030642E752E11F4682E792E0D
:101CC000062D172D060F171F0A191B09602F712FDC
:101CD00076956795769567952BE734E1842F952F58
:101CE00084D99695879564E670E036D9882E992E2A
:101CF00008191909061917090A301105812DD8F09C
:101D0000282D392D2E0D3F1D2C0D3D1D8D859E85B9
:101D1000821B930B0A972DEC3CEC40E050E0682FBF
:101D2000792F842F952F61D99695879596958795CC
:101D3000969587958395682E89E090E0801B910B9E
:101D400021E08A30910508F4212D40E050E0203058
:101D5000A42EB52E2D853E850B851C8511F4A82E4D
:101D6000B92EA20EB31E8E0C9F1C8C0C9D1C6A2DCE
:101D70007B2D681979092DEC3CEC862E972E842F4B
:101D8000952F33D9969587959695879596958795AE
:101D90006AE070E0E1D8C82ED92E0436110510F49F
:101DA00080E312C0602F712F64567040769567955E
:101DB000769567952BE734E140E050E0842F952F2E
:101DC00014D9969587958F5C9C838B830436110577
:101DD000602F712F10F463E670E076956795769525
:101DE00067952BE734E140E050E0842F952F242EB7
:101DF000352EFBD89695879564E670E0ADD8E82E31
:101E0000F92E0E191F090A30110510F480E313C0D2
:101E1000802F912F0A972DEC3CEC40E050E0682F8A
:101E2000792F842F952FE1D896958795969587954C
:101E3000969587958F5C9A8389832D853E8549E0A9
:101E400050E0642F752F8C189D08601B710B81E08A
:101E50006A307105422D532D08F4812D820E931E98
:101E60008030C42ED52E2B843C8411F4C62ED72E60
:101E7000512C8A189B08A82CC20CD31C0C2D1D2D8C
:101E80000E191F092DEC3CEC602F712F842F952F1C
:101E9000ACD89695879596958795969587956AE09F
:101EA00070E05AD8081B190B020D131D0C191D09DF
:101EB00089859A85803079F0AC2FBD2F1F96E42D4F
:101EC000F52DAE0FBF1F805D8C9331968E2F9F2F07
:101ED0002F81388507C02F8138852030842D952D9E
:101EE00009F4A3C04A2DAC2FBD2F1F96A80FB91F10
:101EF000205D2C9301962D813E81AC2FBD2F1F9626
:101F0000A80FB91F205D2C930196262DAC2FBD2F55
:101F10001F96A80FB91F205D2C9301966C2F7D2F63
:101F2000615F7F4F262F372FC62ED72E280F391FE0
:101F3000A82FB92F622F732F89819A81E62FF72F4F
:101F400083838B819C8182838EE281831596EA2E26
:101F5000FB2EEC2DFD2DEA0FFB1F10820063E62FF8
:101F6000F72F04834063A22FB32F4C9300910002FC
:101F700010910102802F912F089621E08130920765
:101F800008F05EC0EE2DFF2DEE7FE80FF91F3296B0
:101F9000E130F20708F054C0F0930102E093000230
:101FA00080509F4F6C2F7D2F615F7F4F4E2D5F2D97
:101FB000C82ED92EEFD7AE2DBF2DAC0DBD1D1C9256
:101FC000802F912F80509F4F21E030E0E82FF92F94
:101FD00031832083E02FF12FEE5FFE4FF182E0820C
:101FE000E02FF12FEC5FFE4FF182E0820A5F1E4F7F
:101FF000E02FF12FD182C0826A960FB6F894DEBF2F
:102000000FBECDBFDF91CF911F910F91FF90EF9049
:10201000DF90CF90BF90AF909F908F907F906F9008
:102020005F904F903F902F9008952D813E812030FA
:102030004A2D09F062CF262D203009F067CF6ECFF0
:102040009AD51EDDE82FF92F8281938181159105A4
:10205000A1F026813781E0E0F0E0A22FB32FAE0F90
:10206000BF1F4C915091C00050725030D9F3409333
:10207000C6003196E817F90780F38091C00080729E
:102080008030D9F38AE08093C600089580910002E1
:1020900090910102E82FF92F329621E0E130F2070A
:1020A00068F4F0930102E093000280509F4F20E01B
:1020B00030E0E82FF92F3183208308955CD508950F
:1020C00088E48093B8001092B90084E08093BC004B
:1020D00008958091BC008823E2F78091B900887F41
:1020E000089584EA8093BC008091BC008823E2F7C5
:1020F0008091B900089584E98093BC00089580938D
:10210000BB0084E88093BC008091BC008823E2F788
:102110008091B90008950F93CF93DF93CDB7DEB7C9
:1021200084EA8093BC008E819F819091BC009923AA
:10213000E2F79091B900000F0093BB0094E89093F0
:10214000BC009091BC009923E2F79091B900809275
:10215000BB0094E89093BC009091BC009923E2F7F7
:102160009091B9008093BB0084E88093BC0080917B
:10217000BC008823E2F78091B90084E98093BC0019
:10218000DF91CF910F9108950F93CF93DF93CDB748
:10219000DEB784EA8093BC008E819F812091BC00D1
:1021A0002223E2F72091B900000F0093BB0024E83E
:1021B0002093BC002091BC002223E2F72091B900BB
:1021C00081159105B1F0E0E0F0E024E8AE2DBF2DDF
:1021D000AE0FBF1F3C913093BB002093BC003091E9
:1021E000BC003323E2F73091B9003196E817F907C4
:1021F00068F384E98093BC00DF91CF910F9108953B
:102200000F9384EA8093BC008091BC008823E2F79E
:102210008091B900000F0093BB0084E88093BC005C
:102220008091BC008823E2F78091B9008092BB00C6
:1022300084E88093BC008091BC008823E2F7809101
:10224000B90084E98093BC000F910895CF93DF9388
:10225000CDB7DEB7A0910002B09101028A2F9B2F6B
:10226000029641E08130940708F022C02A2F3B2FCC
:1022700020503F4F60E070E0E22FF32F71836083C6
:102280001696A130B407A0F44D8D5E8DB093010277
:10229000A0930002A82FB92FAE5FBE4F4C93805081
:1022A0009F4FE82FF92F31832083DF91CF9108953D
:1022B00062D4089528E42093B8001092B90024E075
:1022C0002093BC00E82FF92F828194EA9093BC0000
:1022D0009091BC009923E2F79091B900880F809308
:1022E000BB0084E88093BC008091BC008823E2F7A7
:1022F0008091B90080E090E024E8A82FB92FA05980
:10230000B84B3C913093BB002093BC003091BC0093
:102310003323E2F73091B900E82FF92F3196883155
:1023200091058E2F9F2F48F384E98093BC00089578
:102330000F931F93262B372B042B152B022B132BBC
:102340006FEF0115110509F4612D88E192E040E07D
:1023500054E03CD61F910F910895FF920F931F9365
:10236000CF93DF93CDB7DEB7A82DB92D0038110577
:1023700008F037C0A034B10508F033C04E855F8542
:10238000EC85FD858A859B85688579853A2F377030
:1023900021E0F32EFA941AF0220FFA94EAF7B2959C
:1023A000A295B07FBA27A07FBA27A078B370A02BE0
:1023B000B12BA85EBD4F1C91212B0EEF3A9522F058
:1023C000000F011D3A95E2F76E2B7F2B842B952B86
:1023D000862B972B8115910511F0122F01C0102328
:1023E0001C93DF91CF911F910F91FF9008956F92F1
:1023F0007F92AF92BF92CF92DF92EF92FF92CF93F4
:10240000DF93CDB7DEB722970FB6F894DEBF0FBECD
:10241000CDBFEF88F88CE114F10409F465C08DA1FB
:102420009EA16BA17CA129A13AA1EF8DF8A14F85B6
:102430005889A0E0B0E0E62BF72B282B392B2E2B68
:102440003F2BAA2EBB2E6A2E7B2E09C0862D972DE0
:102450000196682E792E8E159F0508F045C041150E
:102460005105A1F3A62DB72DA80DB91D8A2F877090
:102470009EEF9A83982F9A9532F06A81660F611DBC
:102480006A839A95D2F791E099838A951AF0998197
:10249000990FFACF6A2F7B2F72956295707F7627FE
:1024A000607F7627607873708A2D9B2D08C0CA8064
:1024B000DC20D08201968417950708F0C7CFA0349E
:1024C000B105C0F7E82FF92FE00FF11FE038F10553
:1024D00088F7E62BF72BE85EFD4FD08021153105FC
:1024E00031F3C980DC28E5CF22960FB6F894DEBF21
:1024F0000FBECDBFDF91CF91FF90EF90DF90CF90D7
:10250000BF90AF907F906F9008952F923F924F921F
:102510005F926F927F928F929F92AF92BF92CF9273
:10252000DF92EF92FF920F931F93CF93DF93CDB77C
:10253000DEB7882D992DED8CFE8CE81AF90A4E2D08
:102540005F2D550F550B452F6E2C7F2C642675265D
:102550002D893E89201B310BA22FB32FBB0FBB0B44
:10256000AB2FE22FF32FEA27FB276FEF7FEFC62E6B
:10257000D72E61E070E0FF20462E572EE62EF72E74
:1025800012F4EC2CFD2C641A750AEA1BFB0B3323A6
:1025900012F44C2C5D2CCE2EDF2EC618D708A62C9C
:1025A000B72CB194A194B1084BA55CA569A57AA5F7
:1025B0008FA098A4ADA1BEA120E030E0A62BB72B40
:1025C000842A952A8A2A9B2A08C0860F971F020D03
:1025D000131DC41AD50ACA0EDB1E0038110508F0F7
:1025E0002BC08034910508F027C0782F777061E008
:1025F000472F4A951AF0660F4A95EAF7A82FB92F88
:10260000B295A295B07FBA27A07FBA27A078B37001
:10261000A02BB12BA85EBD4F3C9063294EEF7A955D
:1026200022F0440F411D7A95E2F78114910411F0D4
:10263000362E01C034223C924D895E89041715075D
:1026400031F44D8D5E8D8417950709F422C0AC2DB1
:10265000BD2DAA0FBB1FEA17FB07622F732F14F0C3
:102660006E2D7F2DAA15BB05222E332E14F0242C9F
:10267000352CAA15BB05422F532F14F0462D572D8C
:10268000EA17FB07A22FB32F0CF49FCFAE2FBF2F5B
:102690009CCFDF91CF911F910F91FF90EF90DF9032
:1026A000CF90BF90AF909F908F907F906F905F90F2
:1026B0004F903F902F9008956F927F928F929F92AC
:1026C000AF92BF92CF92DF92FF920F931F93CF935F
:1026D000DF93CDB7DEB7E82FF92FF28084EA80933D
:1026E000BC008091BC008823E2F78091B900FF0C08
:1026F000F092BB0084E88093BC008091BC008823EA
:10270000E2F78091B9001092BB0084E88093BC008E
:102710008091BC008823E2F78091B90081E2809328
:10272000BB0084E88093BC008091BC008823E2F762
:102730008091B9001092BB0084E88093BC00809126
:10274000BC008823E2F78091B9008FE78093BB003B
:1027500084E88093BC008091BC008823E2F78091DC
:10276000B90082E28093BB0084E88093BC00809132
:10277000BC008823E2F78091B9001092BB0084E886
:102780008093BC008091BC008823E2F78091B9005F
:1027900087E08093BB0084E88093BC008091BC00FC
:1027A0008823E2F78091B90088E192E0C82ED92E03
:1027B00080E190E0A82EB92E14EA04E880E090E0D1
:1027C000882E992E84E98093BC00ADB7BEB751978F
:1027D0000FB6F894BEBF0FBEADBF6A2E7B2E80E44D
:1027E0008D938A2F9B2F6C2D7D2D4A2D5B2DD2D35F
:1027F0001093BC008091BC008823E2F78091B9005F
:10280000F092BB000093BC008091BC008823E2F7EB
:102810008091B900882D992DA62DB72DA80FB91F2D
:102820002C912093BB000093BC002091BC0022237C
:10283000E2F72091B900E82FF92F31968031910508
:102840008E2F9F2F48F3BECF2F923F924F925F92D1
:102850006F927F928F929F92AF92BF92CF92DF92B0
:10286000EF92FF920F931F93CF93DF93CDB7DEB715
:10287000AC970FB6F894DEBF0FBECDBF9CA68BA65B
:102880000FB623968EAD9FAD23970FBEE82FF92F7D
:102890002281338121153C832B83310509F468C2E1
:1028A000E82FF92F868197819A8389830FB62B961B
:1028B000AEACBFAC2B970FBE0FB629968EAC9FACBB
:1028C00029970FBE0FB627966EAC7FAC27970FBE29
:1028D0000FB625964EAC5FAC25970FBE8BA59CA579
:1028E00087709EEF9C8B9B8B982F9A9532F02B894B
:1028F000220F211D2B8B9A95D2F791E09A8B998B01
:102900008A951AF09989990FFACF8BA59CA50696FE
:102910009AA789A787709EEF988B982F9A9532F087
:102920002889220F211D288B9A95D2F791E09F8745
:102930008A951AF09F85990FFACF8BA59CA50596CD
:1029400098A78FA387709EEF9E87982F9A9532F055
:102950002E85220F211D2E879A95D2F791E09D8713
:102960008A951AF09D85990FFACF8BA59CA50496A0
:102970009EA38DA387709EEF9C87982F9A9532F027
:102980002C85220F211D2C879A95D2F791E09B87E9
:102990008A951AF09B85990FFACF8BA59CA5039673
:1029A0009CA38BA387709EEF9A87982F9A9532F0FD
:1029B0002A85220F211D2A879A95D2F791E09987BF
:1029C0008A951AF09985990FFACF8BA59CA5029646
:1029D000E82EF92E87709EEF9887982F9A9532F0FF
:1029E0002885220F211D28879A95D2F791E09F8391
:1029F0008A951AF09F81990FFACF8BA59CA5019615
:102A0000C82ED92E8770982F9A952AF02C89220FDC
:102A1000211D2C8BF9CF8A9522F09A89990F9A8BD8
:102A2000FACF8BA59CA592958295907F9827807F61
:102A30009827807893709AA389A389A59AA59295DF
:102A40008295907F9827807F98278078937098A3AD
:102A50008F8F8FA198A592958295907F9827807FE0
:102A60009827807893709E8F8D8F8DA19EA19295CF
:102A70008295907F9827807F9827807893709C8F8D
:102A80008B8F8BA19CA192958295907F9827807FB8
:102A90009827807893709A8F898F8E2D9F2D92958D
:102AA0008295907F9827807F982780789370988F61
:102AB0008F8B8C2D9D2D92958295907F9827807F6E
:102AC0009827807893709E8B8D8B80E090E0E82F24
:102AD000F92F0EC0ED81FE813196802F912F069641
:102AE000082F192F8B819C81E817F90708F040C146
:102AF000A981BA81FE83ED83AE0FBF1F8C91803216
:102B00004CF38052992765E070E026D28057984BAD
:102B1000E0E0F0E00AC0588945234C93E22FF32F00
:102B200031962430310508F0D5CF2E2F3F2FA22F1C
:102B3000B32F402F512FA40FB51FE82FF92FE20F0D
:102B4000F31F4081542F5170503009F423C0A03836
:102B5000B10508F01FC06BA57CA560347105D0F4E9
:102B6000642D752D68297929262C372C2A283B2895
:102B7000262A372AE9A1FAA1EA2BFB2BE85EFD4FB2
:102B800050812114310419F06989562B02C06B89D8
:102B900056235083542F5270503009F423C0A0386C
:102BA000B10508F01FC06C2D7D2D60347105D0F487
:102BB000642D752D68297929262C372C2A283B2845
:102BC000262A372AED89FE89EA2BFB2BE85EFD4F8A
:102BD00050812114310419F06A89562B02C06C8986
:102BE00056235083542F5470503009F423C0A0381A
:102BF000B10508F01FC06E2D7F2D60347105D0F433
:102C0000642D752D68297929262C372C2A283B28F4
:102C1000262A372AEF89F88DEA2BFB2BE85EFD4F39
:102C200050812114310419F06F81562B02C0688540
:102C300056235083542F5870503009F423C0A038C5
:102C4000B10508F01FC06BA17CA160347105D0F400
:102C5000642D752D68297929262C372C2A283B28A4
:102C6000262A372AE98DFA8DEA2BFB2BE85EFD4FE9
:102C700050812114310419F06985562B02C06A85F0
:102C800056235083542F5071503009F423C0A0387C
:102C9000B10508F01FC06DA17EA160347105D0F4AC
:102CA000642D752D68297929262C372C2A283B2854
:102CB000262A372AEB8DFC8DEA2BFB2BE85EFD4F95
:102CC00050812114310419F06B85562B02C06C859C
:102CD00056235083542F5072503009F423C0A0382B
:102CE000B10508F01FC06FA178A560347105D0F45C
:102CF000642D752D68297929262C372C2A283B2804
:102D0000262A372AED8DFE8DEA2BFB2BE85EFD4F40
:102D100050812114310419F06D85562B02C06E8547
:102D2000562350834074403009F4F8CEA038B105E2
:102D300008F0F4CE49A55AA54034510508F0EECE6E
:102D4000442D552D48295929662D772D6A297B292F
:102D5000642B752B4F8D58A1A42BB52BA85EBD4FAE
:102D60004C916115710509F4D6CE5F85452BD5CE02
:102D7000AC960FB6F894DEBF0FBECDBFDF91CF91FA
:102D80001F910F91FF90EF90DF90CF90BF90AF9089
:102D90009F908F907F906F905F904F903F902F907B
:102DA00008951092C50087E68093C40088E0809360
:102DB000C10086E08093C2001092800081E0809381
:102DC0008100089508951092C50087E68093C4009D
:102DD00088E08093C10086E08093C200109280005A
:102DE00081E0809381000CD9FFCF1092C50087E667
:102DF0008093C40088E08093C10086E08093C20085
:102E00001092800081E080938100FAD8FFCF00000B
:102E10000895089508958F929F92AF92BF92CF9296
:102E2000DF92EF92FF920F931F93C82ED92E80E06E
:102E300090E06115710509F457C0EFE1F0E021E081
:102E400030E0822E932E082F192F482F592F282F2C
:102E5000392FAE2FBF2F000F111F441F551FF52E06
:102E6000E42E4C2D5D2DEA951AF056954795FBCF33
:102E700041705070A02EB12EA42AB52AE1E0A6160A
:102E8000B706E806F90641E008F0412D41704030F0
:102E9000482F592F11F4462F572F0A2D1B2D041B95
:102EA000150B4E2D5F2D40405040A616B70608F07A
:102EB000E12DE114F10409F0E12DE82CF92CFA2FB1
:102EC000FA951AF0EE0CFF1CFBCFE030E82FF92F3B
:102ED00011F4EE2DFF2D2E2B3F2BEA2FFB2F3197D8
:102EE000A115B10519F0B5CF282F392F822F932FB7
:102EF0001F910F91FF90EF90DF90CF90BF90AF9018
:102F00009F908F900895EF92FF920F931F936115FA
:102F1000710509F432C040E050E0AFE1B0E0242F89
:102F2000352FE42FF52FEA2EFB2E220F331FEE1F35
:102F3000FF1F082F192FAA951AF016950795FBCF9A
:102F400001701070202B312BA1E026173707E40702
:102F5000F50708F0A12DA170A030A42FB52F11F412
:102F6000A62FB72F2A1B3B0BE040F040AE2DBF2D04
:102F70001197E114F10419F0D6CF282F392F822FA1
:102F8000932F1F910F91FF90EF9008954F925F92B2
:102F90006F927F928F929F92AF92BF92CF92DF9269
:102FA000EF92FF920F931F93662E772EA82EB92EC5
:102FB00000E010E06114710409F46CC08A2D9B2DAF
:102FC000990F990B892FEA2DFB2DE827F927E81B8C
:102FD000F90B862D972D990F990B892FA62DB72DBB
:102FE000A827B927A81BB90B8FE190E061E070E03A
:102FF000C02ED12E402F512F202F312FE82EF92E09
:10300000CC0CDD1C441F551F952E842E8E2F9F2F18
:103010004E2D4A951AF096958795FBCF817090704A
:103020004C2C5D2C482A592A81E04A165B06800602
:10303000910691E008F0912D91709030402F512F22
:1030400011F44A2F5B2FC42CD52CC41AD50A482D55
:10305000592D404050404A165B0608F0812D8114DE
:10306000910409F0812D862E972E9E2D9A951AF0A7
:10307000880C991CFBCF8030802F912F11F4882D64
:10308000992D282B392B8E2D9F2D0197E114F104BA
:1030900019F0B4CF202F312F6A247B2477201AF423
:1030A000319521953109822F932F1F910F91FF9018
:1030B000EF90DF90CF90BF90AF909F908F907F90D8
:1030C0006F905F904F900895CF92DF92EF92FF92B2
:1030D0000F931F93C82ED92E990F990B892FEC2C83
:1030E000FD2CE826F926E81AF90A6115710509F49C
:1030F0003BC0862F972F990F990B892F6827792727
:10310000681B790B80E090E0EFE1F0E0282F392F89
:10311000A82FB92F0E2F1F2F220F331FAA1FBB1F3F
:103120004E2D5F2DEA951AF056954795FBCF4170CD
:103130005070242B352B41E026173707A807B90715
:1031400008F0412D41704030482F592F11F4462F7F
:10315000572F241B350BA040B040E02FF12F3197A3
:103160000115110519F0D6CF2E2D3F2DDD201AF4B3
:10317000319521953109822F932F1F910F91FF9047
:10318000EF90DF90CF9008952F923F924F925F92F1
:103190006F927F928F929F92AF92BF92CF92DF9267
:1031A000EF92FF920F931F93CF93DF93CDB7DEB7CC
:1031B0006D970FB6F894DEBF0FBECDBF9E838D8393
:1031C0007C836B835A834983388B2F87A0E0B0E0E0
:1031D00081E0A114B886AF82B104DA86C986CA0636
:1031E000DB06FC86EB86EA06FB061E870D870A07D0
:1031F0001B0709F0812D8170803009F012C10FE3A7
:1032000010E081EC898F212CEA2EFB2E8A2E9B2E3A
:103210006A2E7B2EBD8FAC8F2A2F3B2F4A2F5B2F20
:103220006A2F7B2FCA2EDB2E3A8B298BDC8ACB8A26
:103230007E8B6D8B892D880FC22CCC1C660C771C65
:103240002C8D3D8D221F331FEE0CFF1C881C991CFA
:10325000188F0F8B0030EF85F88909F422C0998D03
:10326000EF85F889A980BA804B805C80AD81BE81F2
:10327000939581E0903009F0812DB694A794F7954D
:10328000E795642D6695322C3794722D622DA22815
:10329000B328E62BF72BB695A79557944794813022
:1032A00039F7D22C322C222933296C287D28E17061
:1032B000F070EE29FF298F89988D803009F427C09E
:1032C000998D61E070E0E62EF72E60E070E0462E0A
:1032D000572EC42CD52CA42CB52C939581E090307E
:1032E00009F0812D6D2D660F622D661F722D322C17
:1032F000AA0CBB1C441C551C42285328A62AB72ADA
:10330000EE0CFF1CCC1CDD1C813039F70CC081E0B9
:1033100090E0E82EF92E80E090E0482E592EC42C43
:10332000D52CA42CB52C91E06F817885E617F70792
:1033300069857A85860697066B857C85660677069D
:103340006D857E853D8F2C8F2607370708F0912DE0
:103350009B8E8A8E9170903060E070E0A62FB72F20
:1033600011F4AF81B885062D172D9030862E972E3B
:1033700011F489849A849030662E772E11F46B8430
:103380007C84903011F46D857E85EA1BFB0BAA8D41
:10339000BB8DA809B909BB8FAA8F06091709602E32
:1033A000712E2C8D3D8D260B370B3D8F2C8F903041
:1033B00060E070E0A62FB72F11F4A42DB52D90304A
:1033C000862E972E11F48A2C9B2C9030A62EB72E89
:1033D00011F4AC2CBD2C9030862F972F11F48E2D2C
:1033E0009F2DCB88DC88CA2ADB2A6D897E896829D3
:1033F00079294A295B2929893A89282B392B898DF2
:103400008395898FAF89B88D8A2F9B2F0197A1153E
:10341000B105082F192FEE2EFF2E8A8C9B8C49F0B8
:1034200003CF2A2F3B2F4A2F5B2F6A2F7B2FCA2EC9
:10343000DB2E8C2D9D2D6D960FB6F894DEBF0FBE42
:10344000CDBFDF91CF911F910F91FF90EF90DF9053
:10345000CF90BF90AF909F908F907F906F905F9034
:103460004F903F902F9008952F923F924F925F92EE
:103470006F927F928F929F92AF92BF92CF92DF9284
:10348000EF92FF920F931F93CF93DF93CDB7DEB7E9
:1034900060970FB6F894DEBF0FBECDBF9E838D83BD
:1034A0007C836B83388B2F8720E030E081E0A11490
:1034B000B886AF82B104DA86C986C206D306FC8616
:1034C000EB86E206F3061E870D870207130709F055
:1034D000812D8170803009F099C02FE330E061ECDC
:1034E000412C80E090E0882E992EA82CB92CE82D54
:1034F000F92DA82DB92D5A834983422F532F8F2F91
:10350000880F042D001FAA0FBB1F881C991CAA0C32
:10351000BB1CEE1FFF1F40302F85388909F422C0E5
:10352000962F2F85388969807A80EB80FC80CD804A
:10353000DE80939511E0903009F0112D7694679418
:10354000379527958E2D8695542C5794342C242C02
:103550006428752822293329D694C794F794E794D0
:10356000113039F7642E752E142D542C842895288B
:10357000A02BB12B217030702A293B2991E04F817B
:1035800058852417350749855A85E407F5074B8583
:103590005C85A407B5074D855E858406950608F011
:1035A000912D9170903040E050E011F44F8158859A
:1035B000B62E903000E010E011F409851A859030A5
:1035C00060E070E0E62EF72E11F4EB84FC8490307E
:1035D00080E090E0C82ED92E6B2D11F4CD84DE84CE
:1035E000241B350BE00BF10BAE09BF098C089D08BD
:1035F0006395462D572D842F952F01974115510521
:10360000482F592FA22EB32E49F079CF2F85388914
:10361000E42FF52FAB81BC818D809E804E2F5F2FD4
:103620006A2F7B2F882D992D60960FB6F894DEBFF8
:103630000FBECDBFDF91CF911F910F91FF90EF9003
:10364000DF90CF90BF90AF909F908F907F906F90C2
:103650005F904F903F902F9008952F923F924F92FE
:103660005F926F927F928F929F92AF92BF92CF9212
:10367000DF92EF92FF920F931F93CF93DF93CDB71B
:10368000DEB76E970FB6F894DEBF0FBECDBFEA2D42
:10369000FB2D842E952EA22EB32E40E050E021E08B
:1036A000E115F105C406D506E406F506040715077D
:1036B00041E009F0412DA0E0B0E06A2E7B2E6E1AA9
:1036C0007F0A7A8A698A6A2E7B2E6C087D08788A3E
:1036D0006F866A2E7B2E6E087F087E866D86A00B15
:1036E000B10BBC87AB87312F3323A1E00AF0A12DAA
:1036F000A03011F41C870B87A03011F4FE86ED86F4
:10370000A03011F4D88ACF86A03011F4FA8BE98B5F
:10371000E0E0F0E0AE2FBF2FAA19BB09BC8BAB8B4A
:10372000AE2FBF2FA809B909BA87A987AE2FBF2F1F
:10373000A60BB70BB887AF83E80BF90BFE83ED83BD
:10374000392F33230AF0212D203011F49E838D83ED
:10375000203011F478876F83203011F49A8689869F
:103760004170203011F4BC8AAB8A9A8389831C8310
:103770000B83403080E090E009F001C14FE350E05E
:1037800021ECC12CE82EF92E682F792F282E392E06
:10379000A82EB92E682E792E082F192FA82FB92FF1
:1037A000882E992E7E8A6D8ABA8FA98F9C8E8B8ED9
:1037B000872F880F8C2C881C220C331CAA1CBB1C46
:1037C000EE0CFF1C661F771F5E8F4D8F4030EB891C
:1037D000FC8909F422C0322FEB89FC8969847A8440
:1037E0004F8058848D819E813395A1E0303009F05F
:1037F000A12D76946794F795E795442D4695DC2C9A
:10380000D7945C2D4C2D6C287D28E42BF52B9695B8
:10381000879557944794A13039F79C2CDC2CAC2821
:10382000BD2828283928E170F070EE29FF298D8DF8
:103830009E8D803009F427C0322F81E090E0682E01
:10384000792E80E090E0882E992E482C592CE82C77
:10385000F92C339581E0303009F0812D952D990FA9
:103860004C2D441F5C2DDC2CEE0CFF1C881C991C7D
:103870008C289D28E42AF52A660C771C441C551CCC
:10388000813039F70CC081E090E0682E792E80E01D
:1038900090E0882E992E482C592CE82CF92C31E0F8
:1038A00089899A89E817F9078F85988968077907C0
:1038B0008D859E85280639068B859C85A806B906C8
:1038C00008F0312D3170303040E050E0842F952FDA
:1038D00011F489899A89188F0F8B3030A42FB52F56
:1038E00011F4AF85B8893030042F152F11F40D85F0
:1038F0001E85303011F44B855C85E81BF90B6A0B93
:103900007B0B200A310AA40AB50A303040E050E0AF
:10391000842F952F11F4882D992D3030A42FB52F99
:1039200011F4AE2DBF2D3030042F152F8B8C9C8CB5
:1039300011F4042D152D303011F4462D572D882A01
:10394000992A898D9A8D8A2B9B2BA82FB92F8F8925
:10395000988D802B912B082F192F6D887E88642AD3
:10396000752A23954D8D5E8D842F952F01974115D6
:103970005105482F592FEE2EFF2E49F013CF682EF8
:10398000792E082F192FA82FB92F882E992E80E075
:1039900090E0282F392F26193709482F592F400B2F
:1039A000510B682F792F6A0B7B0B88099909E82E38
:1039B000F92E8B819C81E981FA818E279F2781E0F6
:1039C00099230AF0812D8170803011F4262D372D36
:1039D000803011F4402F512F803011F46A2F7B2F4B
:1039E00080308E2D9F2D11F4882D992D6E960FB657
:1039F000F894DEBF0FBECDBFDF91CF911F910F9125
:103A0000FF90EF90DF90CF90BF90AF909F908F90FE
:103A10007F906F905F904F903F902F9008952F92DE
:103A20003F924F925F926F927F928F929F92AF924E
:103A3000BF92CF92DF92EF92FF920F931F93CF939B
:103A4000DF93CDB7DEB764970FB6F894DEBF0FBE35
:103A5000CDBFEA2DFB2DA42EB52E40E050E0A1E015
:103A6000E115F105C406D506E406F50604071507B9
:103A7000B1E009F0B12D842E952E8E1A9F0A9A8AF4
:103A8000898A842E952E8C089D08988A8F86842E8C
:103A9000952E8E089F089E868D86400B510B5C8765
:103AA0004B87412F442341E00AF0412D403011F46F
:103AB0001C870B87403011F4FE86ED86403011F4F0
:103AC000D88ACF86403011F4FA8BE98B40E050E081
:103AD000E42FF52FE21BF30BFC8BEB8BE42FF52F80
:103AE000EA09FB09F887EF83E42FF52FE60BF70BC4
:103AF000FE83ED83480B590B5C834B83492F442392
:103B00000AF0A12DA03011F49C838B83A03011F416
:103B10007E836D83A03011F4B886AF82B170A0307F
:103B200011F43C8B2B8B9A838983B03009F094C0BD
:103B30004FE350E061ECC12C8C2D9C2D9A87898736
:103B400080E090E0282E392EA22DB32DE22DF32D0A
:103B50002B2F220F4C2C441CEE0FFF1F221C331C5A
:103B6000880F991FAA1FBB1FE42EF52E40300B892A
:103B70001C8909F422C0362F0B891C89AF80B884B8
:103B80008D809E806B807C80339521E0303009F001
:103B9000212DB694A79417950795582D5695DC2C92
:103BA000D7945C2D4C2DAC28BD28042B152B769476
:103BB000679497948794213039F75C2C29853A854E
:103BC000222A332AE429F52901701070082B192BB9
:103BD00081E029893A89021713072F853889A207BE
:103BE000B3072D853E85E207F3072B853C8522062A
:103BF000330608F0812D8170803020E030E011F430
:103C000029893A89D62E803040E050E011F44F8562
:103C10005889803060E070E0A62EB72E11F4AD8494
:103C2000BE84803080E090E06D2D11F48B859C8502
:103C3000021B130BA40BB50BEA09FB09280A390A6E
:103C400063958E2D9F2D0197E114F104482F592F74
:103C5000802F912F49F07CCF0B891C89AF81B885CB
:103C6000ED81FE812B803C8080E090E0E82EF92EF3
:103C7000E01AF10A482F592F4A0B5B0B682F792F56
:103C80006E0B7F0B8209930921E0C980DA80DD2069
:103C90000AF0212D2170203011F4E02EF12E203079
:103CA00011F44A2F5B2F203011F46E2F7F2F20301C
:103CB00011F4822D932D2E2D3F2D64960FB6F8947E
:103CC000DEBF0FBECDBFDF91CF911F910F91FF904F
:103CD000EF90DF90CF90BF90AF909F908F907F90AC
:103CE0006F905F904F903F902F900895880F991F8D
:103CF000812D881F892F803049F08F3F6295607F2A
:103D0000660F962F812D712D612D089560E070E072
:103D1000862F972F089560E070E0862F972F0895E3
:103D2000EF92FF920F931F93282F392F60E070E0DE
:103D30002115310509F45CC0E22FF32FFF0FFF0BB3
:103D4000EF2F462F572F421B530B862F972F8E0B8B
:103D50009F0BA32FBA2FBB2312F08E2F9F2FAA23C6
:103D600012F0422F532FAFE1B0E02CEEE1E0F0E093
:103D7000EE2EFF2EEA2FFB2F0E2D1F2D3E2F3A95F4
:103D80001AF0000F111FFBCF0423152331E001159A
:103D900011056607770709F0312D31702A95AE2F8E
:103DA000BF2F1197303031F7E43309F424C0E0E03D
:103DB000F0E0B12D642F752F4E2F5F2F239531E04A
:103DC000203009F0312DA92FAA0FAB2FAA1F0B2FDE
:103DD0001B2FEE0FFF1F441F551F402B512BEA2BAB
:103DE000FB2B660F771F881F991F313039F705C0ED
:103DF000862F972F02C0642F752F1F910F91FF9070
:103E0000EF9008959295907F82959827807F9827CC
:103E1000880F991F712D612D089580E090E008951D
:103E200080E090E008958F929F92CF92DF92EF9280
:103E3000FF920F931F93A0E0B0E0E1E061157105E0
:103E4000EA2EFB2E8A079B0709F0E12DE170E03096
:103E500009F0AEC0E1E021153105AE2DBF2D4A07B6
:103E60005B0709F0E12DE170E03009F072C0260F28
:103E7000371F481F591F6E2D7F2D862E972E881CA9
:103E8000991C661F771FB12DA52FA295AF70A6951F
:103E9000EB2FFB2F880C991C661F771F880C991C31
:103EA000661F771F880C991C661F771F6E2B7F2B50
:103EB0008A2A9B2A220F331F441F551F220F331FAC
:103EC000441F551F220F331F441F551FE1E0F0E030
:103ED0008E2F9F2FE62FF72FE074F07011E0111452
:103EE0001104CE2CDF2CCC04DD04CC04DD04EC0565
:103EF000FD0509F0112D1170E52FEE0FAB2FAA1F54
:103F0000EB2FFB2F880C991C661F771F6E2B7F2BC6
:103F10008A2A9B2A220F331F441F551FE82FF92F8F
:103F20003197103009F0D4CFA62FB72FA070B17001
:103F3000E0E0F0E00B2F112D800F911F8050984092
:103F400018EF8230910750F42E2F3F2F4E2F5F2F06
:103F50002FC0262F372F482F592F2AC011E01114B8
:103F60001104EE07FF07EE07FF07AE07BF0709F0D2
:103F7000112D1170103011F4E4E001C0E3E0F0E025
:103F8000E030B1F0A12D1A2F0A2F5695479537959D
:103F90002795F82DF695BA2FB7954A2B5B2B202B3A
:103FA000312B7695679597948794EA95E03069F779
:103FB000622F732F842F952F1F910F91FF90EF90F9
:103FC000DF90CF909F908F9008952DDF089560E04F
:103FD00070E0862F972F08952F923F924F925F9215
:103FE0006F927F928F929F92AF92BF92CF92DF9209
:103FF000EF92FF920F931F93CF93DF93CDB7DEB76E
:104000006C970FB6F894DEBF0FBECDBF882E992EE9
:10401000C62ED72E642F752F68297929E22FF32F0A
:10402000EC29FD2900E010E0A1E0E115F1056007B1
:10403000710709F0A12DA170A03009F037C261E02D
:10404000C114D1048006910609F0612D61706030C1
:1040500009F02CC261E0211531054007510709F034
:10406000612D61706030A02FB12F09F021C2622E46
:10407000732E842F952F312DE32EF32EE02FF12F69
:10408000A02FB12F40E050E0F88FEF8BE02FF12F01
:10409000E870F07061E011141104440755074407FB
:1040A0005507E407F50709F0612D6170292D220FEE
:1040B000232F221FAA0FBB1F001F111F0E291F290C
:1040C000A22BB32BCC0CDD1C881C991CEF89F88D1E
:1040D0003197603009F0D8CF312D40E050E0A42E68
:1040E000B52EEA2DFB2D2A2C3B2CE82EF92E60E074
:1040F00070E0FA8FE98FEA2DFB2DE870F07041E057
:10410000111411046607770766077707E607F707B4
:1041100009F0412D41702F2D220F232F221FE32F55
:10412000F32F220C331CAA1CBB1CAE2ABF2A222A46
:10413000332A660C771CEE1CFF1CE98DFA8D319733
:10414000403009F0D6CF21E07A866986C614D704BC
:104150008E049F04A205B3050A051B0508F0212D56
:10416000217020306C2D7D2D882D992D6A2E7B2E6F
:10417000402E512EF1F0512DE52FF52F6C2D7D2D78
:10418000882D992D6A2E7B2E402E512E392F330FDC
:10419000452F441F660C771C441C551C4E2A5F2A71
:1041A000642A752A660F771F881F991F2A95203069
:1041B00069F77C8F6B8F21E049855A85C416D50637
:1041C0008E049F0438862F82A205B3050A051B05BD
:1041D00008F4212D3A832983A5E3B0E02BEC298B49
:1041E000312CE0E0F0E02E2F3F2F0E2F1F2F4E2F0F
:1041F0005F2FC82ED92EFE82ED82BC82AB82F88B57
:10420000EF875E8B4D8B1C8B0B8B822E932EBC8786
:10421000AB87A03009F424C0A989EA2F81E090E09F
:1042200040E050E0642F752F242F352FE395F1E007
:10423000E03009F0F12DB72FBB0F232C221C032DEA
:10424000132D220F331F441F551F402B512B2229A2
:104250003329880F991F661F771FF13039F709C07E
:1042600081E090E040E050E0642F752F242F352F3F
:10427000A989B1E0EB8DFC8D09851A85E017F1075E
:10428000CE04DF04EF81F8856E067F064A045B04E6
:1042900008F0B12DB170B03000E010E0E02FF12F48
:1042A00011F4E985FA85FA8BE98B9E868D86B0300C
:1042B00011F40E2D1F2D8C2C9D2CB030E0E0F0E081
:1042C000EE2EFF2E11F4EF80F884B030CE2EDF2ECC
:1042D00011F4CA2CDB2CAB8CBC8CE989FA89AE1AA0
:1042E000BF0A800A910A6E087F084C085D08C82C36
:1042F000D92CED2DEE0F232C221C660C771C441CB0
:10430000551CAA0CBB1CBC8EAB8ECC1CDD1CB0306B
:1043100000E010E0E02FF12F11F4E42FF52FB03082
:10432000402F512FED80FE808D849E8411F4422F0A
:10433000532FB030AB80BC8011F4062F172FB03054
:1043400020E030E011F4282F392F832D932D482AB7
:10435000592A622873286F857889E62BF72B8D8977
:104360009E89482B592B8B899C89082B192B28292E
:104370003929A395A98B8B859C85A82FB92F1197D7
:104380008115910509F03BCF81E04B8D5C8DE9856E
:10439000FA854E175F07DA8AC98ACE04DF04EF81F7
:1043A000F8856E067F064A045B0408F0812D817053
:1043B0004B895C8956954795979487942D883E88BC
:1043C000922D9695B12DB795A12D112D012DA42BD0
:1043D000B52B0829192976956795C62ED72E3794BF
:1043E000279480304F89588D698D7A8D29F08C2DD6
:1043F0009D2DE981FA813BC081E06B8D7C8D8984A4
:104400009A846815790569897A896E057F056E0633
:104410007F064A045B0409F4812D282B392B217077
:10442000307021153105E981FA8179F00F5F1F4F56
:10443000AF4FBF4F822D932D8F4F9F4F282E392E78
:104440008C2D9D2D8F4F9F4F10C0802F912F8170ED
:10445000907020E030E0080F191FA21FB31F221E2A
:10446000331E8C2D9D2D821F931F698D7A8DE170D7
:10447000F070EE2EFF2EE82FF92F807290708115CC
:10448000910519F020E034E002C02FEF33E0461B25
:10449000570B4E0D5F1D420F531F4050584028EFE1
:1044A0004230520708F021C000E010E0A02FB12FE9
:1044B000602F712F8A2F9B2F6C960FB6F894DEBF5A
:1044C0000FBECDBFDF91CF911F910F91FF90EF9065
:1044D000DF90CF90BF90AF909F908F907F906F9024
:1044E0005F904F903F902F90089582958F70929596
:1044F00089279F70892796958795803009F4D8CFB2
:10450000212D522F422FB695A79517950795922DDD
:104510009695322F3795A22BB32B042B152BF6959E
:10452000E795379427948A95803069F7C1CFE82FB3
:10453000F92F91E062177307E407F50781E009F4AA
:10454000812D4E2B5F2B262B372B60E070E0211541
:1045500031054607570709F4912D89238170907022
:104560000895E82FF92F91E062177307E407F50724
:1045700081E009F4812D4E2B5F2B262B372B60E039
:1045800070E0211531054607570709F4912D89235D
:10459000817090700895E1E06217730784079507B2
:1045A000F1E008F0F12D261737074807590708F002
:1045B000E12D482B592B262B372B242B352B21155E
:1045C000310531F0EF1B8E2F9E2F990F990B089517
:1045D00080E090E00895E1E0621773078407950793
:1045E000F1E008F0F12D261737074807590708F0C2
:1045F000E12D482B592B262B372B242B352B21151E
:10460000310531F0EF1B8E2F9E2F990F990B0895D6
:1046100080E090E00895E1E0621773078407950752
:10462000F1E008F0F12D261737074807590708F081
:10463000E12D482B592B262B372B242B352B2115DD
:10464000310531F0EF1B8E2F9E2F990F990B089596
:1046500080E090E00895E1E0621773078407950712
:10466000F1E008F0F12D261737074807590708F041
:10467000E12D482B592B262B372B242B352B21159D
:10468000310531F0EF1B8E2F9E2F990F990B089556
:0C46900080E090E0089580E090E0089544
:1046A00066616C736500566964656F44726976650E
:1046B0007200626F6F74206F6B00566964656F449F
:1046C00072697665722000730073687574646F7721
:1046D0006E002900637373633A206172656E612016
:1046E0004F4F4D004353534320456D6265646465ED
:1046F000642028000000000000000000000000000E
:1047000000000000000000000000000000000000A9
:10471000566964656F4472697665722076312E3011
:104720002E3100000000000000000000000000002A
:10473000637373633A2073636F706520737461638E
:104740006B20756E646572666C6F77000000000008
:10475000637373633A2073636F706520737461636E
:104760006B206F766572666C6F770000000000004A
:1047700000AED580A83FD300408D142000A1C8DA38
:104780001281CFD9F1DB40A4AF000000000000008F
:10479000000000000000005F000000070007001498
:1047A0007F147F14242A7F2A122313086462364957
:1047B0005522500005030000001C22410000412248
:1047C0001C0014083E081408083E08080050300079
:1047D00000080808080800606000002010080402B3
:1047E0003E5149453E00427F4000426151494621C9
:1047F00041454B311814127F1027454545393C4A35
:104800004949300171090503364949493606494984
:10481000291E00363600000056360000000814221B
:104820004114141414144122140800020151090601
:10483000324979413E7E1111117E7F494949363E08
:10484000414141227F4141221C7F494949417F0921
:104850000901013E414151327F0808087F00417F34
:1048600041002040413F017F081422417F404040E9
:10487000407F0204027F7F0408107F3E4141413E99
:104880007F090909063E4151215E7F0919294646E3
:104890004949493101017F01013F4040403F1F200C
:1048A00040201F7F2018207F6314081463030478BE
:1048B0000403615149454300007F4141020408104F
:1048C0002041417F0000040201020440404040407A
:1048D000000102040020545454787F48444438387E
:1048E00044444420384444487F3854545418087E83
:1048F000090102081454543C7F0804047800447DE4
:1049000040002040443D007F1028440000417F408B
:10491000007C041804787C08040478384444443843
:104920007C14141408081414187C7C080404084827
:1049300054545420043F4440203C4040207C1C20E0
:1049400040201C3C4030403C44281028440C50502F
:10495000503C4464544C44000836410000007F0041
:10496000000041360800080408100800000000009C
:0400000300002DC606
:00000001FF
